:100000000C9476000C9495000C9495000C9495003B
:100010000C9495000C9495000C9495000C9495000C
:100020000C9495000C9495000C9495000C949500FC
:100030000C9495000C9495000C9495000C949500EC
:100040000C9481010C9495000C9495000C949500EF
:100050000C9461040C9495000C9495000C949500FC
:100060000C9495000C9495000C9495000C949500BC
:100070000C9491030C9495000C9495000C949500AD
:100080000C9495000C9495000C94950048454C4CAC
:100090004F20574F524C440D0A00256C75200030FC
:1000A00031323334353637383941424344454600DE
:1000B00064656275673A2000303132333435363743
:1000C000383941424344454600727373693D2564A3
:1000D00020626174743D25642074656D703D2564F3
:1000E000206D61633D2564200D0A000011241FBEB0
:1000F000CFEFD0E4DEBFCDBF11E0A0E0B1E0ECE394
:10010000F0E200E00BBF02C007900D92A434B107EB
:10011000D9F729E0A4E4B1E001C01D92AC39B207DF
:10012000E1F70E94D10A0C941C100C9400000E946C
:10013000C6030C94BA005898089589B18270089546
:100140000E94CD008091DE069091DF06892B51F050
:100150006091E0067091E1066A5F7F4F8CED96E05A
:100160000C94510708954DE050E0BC018CED96E0F1
:100170000C94230610924B0110924A0181E8E8EE9C
:10018000F6E0DF01982F1D929A95E9F7EAEAF7E089
:10019000DF011D928A95E9F708950F931F93CF937E
:1001A000DF93CDB7DEB7C055D1090FB6F894DEBFE7
:1001B0000FBECDBF0E94FC03882309F463C00091E9
:1001C000490110E00E940204F801E55DF74F8083C9
:1001D00080914901282F30E08230A8F5E091480154
:1001E000F0E0E659F84FD901A55DB74F9C91908397
:1001F00081111FC020912B08822F90E0909347011E
:10020000809346011F922F9388E291E09F938F93F2
:100210008E010F5F1F4F1F930F930E94D50CC801D3
:100220000E9485030F900F900F900F900F900F90EA
:100230001FC0813041F480912C0890E090934501DB
:100240008093440115C08091460190914701019728
:100250002817390769F4809144019091450104976A
:1002600019F48BB180588BB9109249011092480152
:10027000809149018F5F80934901809148018F5F90
:1002800080934801C05BDF4F0FB6F894DEBF0FBE0E
:10029000CDBFDF91CF911F910F91089584B58260FA
:1002A00084BD8DE787BD85B5836085BD82E0809381
:1002B0006E00089560916B0870916C0880916D08D4
:1002C00090916E0808950F931F9300916B08109101
:1002D0006C0820916D0830916E08600F711F821FAD
:1002E000931F00916B0810916C0820916D0830915C
:1002F0006E08601771078207930798F71F910F9197
:1003000008951F920F920FB60F9211248F939F930F
:10031000AF93BF9380916B0890916C08A0916D088A
:10032000B0916E080196A11DB11D80936B0890934A
:100330006C08A0936D08B0936E08BF91AF919F9128
:100340008F910F900FBE0F901F90189580916B08A2
:1003500090916C08A0916D08B0916E080196A11D56
:10036000B11D80936B0890936C08A0936D08B093B7
:100370006E08089510926F08109276081092750812
:1003800010927408109270081092710810927208FE
:100390001092730810927D0810927C0810927B08CE
:1003A00010927708109278081092790810927A08C3
:1003B0000895089508951092C50023E32093C40082
:1003C000E1ECF0E0208120682083208128612083F7
:1003D000E2ECF0E0208126602083909381088093F6
:1003E000800860E070E083E492E00C94660C1F9259
:1003F0000F920FB60F9211240BB60F922F933F93CB
:100400004F935F936F937F938F939F93AF93BF931C
:10041000EF93FF938091C600E0918008F0918108EE
:10042000309709F00995FF91EF91BF91AF919F919E
:100430008F917F916F915F914F913F912F910F908D
:100440000BBE0F900FBE0F901F90189590938108D0
:1004500080938008089590937F0880937E08089584
:10046000FC018191882339F09091C00095FFFCCF69
:100470008093C600F6CF08959091C00095FFFCCF01
:100480008093C6000895CF93C82F0E943C02E0914C
:100490007E08F0917F08309711F08C2F099580E04D
:1004A00090E0CF910895E82FE295EF70F0E0E156EB
:1004B000FF4FE4919091C00095FFFCCFE093C60000
:1004C0008F70E82FF0E0E156FF4FE4918091C0007B
:1004D00085FFFCCFE093C6000895EF92FF920F9343
:1004E0001F93CF93DF938C017B01EC01CE01801B26
:1004F000910B8E159F053CF489910E94530280E276
:100500000E943C02F3CF8DE00E943C028AE0DF9122
:10051000CF911F910F91FF90EF900C943C020F939D
:100520001F93CF93DF93CDB7DEB70F8118850115E9
:100530001105D9F080916B0890916C08A0916D081D
:10054000B0916E08BF93AF939F938F938AE990E029
:100550009F938F930E94B10C1F930F930E94B10C35
:100560000FB6F894DEBF0FBECDBFAE01455F5F4F43
:1005700069857A8580919809909199090E94330D37
:10058000DF91CF911F910F9108958CE890E09F9398
:100590008F9380EB90E09F938F930E948F020F9038
:1005A0000F900F900F9093E48091C00085FD03C0E1
:1005B0009093C600F9CF2FEF84E39CE02150804058
:1005C0009040E1F700C0000080E58093C6002FEF67
:1005D00084E39CE0215080409040E1F700C000009F
:1005E00088E48093C6002FEF84E39CE02150804094
:1005F0009040E1F700C00000089590938308809335
:10060000820808951092CD008CE08093CC00E9EC34
:10061000F0E0808188688083808188618083EAEC53
:10062000F0E080818660808308951092CD002CE0F8
:100630002093CC00E9ECF0E0208128682083208121
:1006400028612083EAECF0E02081266020839093EB
:10065000830880938208089540914F03509150037E
:100660009A012F5F3F4F3170609151037091520397
:100670002617370741F0FA01E15BFE4F8083309384
:10068000500320934F03089584E092E0EFE4F1E0FB
:10069000DF019C011D9221503040E1F708958091C7
:1006A0004F0390915103891B08952091510330917C
:1006B000520380914F03909150038217930761F08A
:1006C000F901E15BFE4F80812F5F3F4F3170309326
:1006D00052032093510308958FEF08959091C8001D
:1006E00095FFFCCF8093CE000895FC019F01281B4D
:1006F000390B2617370744F42091C80025FFFCCF9B
:1007000021912093CE00F2CF0895FC01819188239E
:1007100039F09091C80095FFFCCF8093CE00F6CFC2
:1007200008951F920F920FB60F9211240BB60F92DD
:100730002F933F934F935F936F937F938F939F93E9
:10074000AF93BF93CF93EF93FF93C091CE008C2FC5
:100750000E942C03E0918208F0918308309711F0F9
:100760008C2F0995FF91EF91CF91BF91AF919F9100
:100770008F917F916F915F914F913F912F910F904A
:100780000BBE0F900FBE0F901F9018951092C500D2
:100790008CE08093C400E1ECF0E080818868808385
:1007A000808188618083E2ECF0E0808186608083D4
:1007B000089540915305509154059A012F5F3F4F82
:1007C000317060915505709156052617370741F035
:1007D000FA01ED5AFC4F8083309354052093530562
:1007E000089584E092E0E3E5F3E0DF019C011D92CF
:1007F00021503040E1F708958091530590915505BF
:10080000891B089520915505309156058091530517
:10081000909154058217930761F0F901ED5AFC4F4E
:1008200080812F5F3F4F31703093560520935505DF
:1008300008958FEF08959091C00095FFFCCF8093AD
:10084000C6000895FC019F01281B390B26173707A6
:1008500044F42091C00025FFFCCF21912093C600D5
:10086000F2CF0895FC018191882339F09091C00066
:1008700095FFFCCF8093C600F6CF0895CF93DF930A
:10088000CDB7DEB72A970FB6F894DEBF0FBECDBF47
:1008900082E0898384E08A838FEF8B8380E391E019
:1008A0000E94850363E070E0CE0101960E9422045D
:1008B0002A960FB6F894DEBF0FBECDBFDF91CF9161
:1008C00008951F920F920FB60F9211240BB60F923C
:1008D0002F933F934F935F936F937F938F939F9348
:1008E000AF93BF93EF93FF938091C6000E94D9030B
:1008F000FF91EF91BF91AF919F918F917F916F91F8
:100900005F914F913F912F910F900BBE0F900FBEB3
:100910000F901F901895E8E6F5E0CF0102969183BD
:1009200080833F9686E0E03DF807B9F71092D10644
:100930001092D0068BE595E090935805809357056B
:1009400010925A051092590508956F927F928F92D6
:100950009F92AF92BF92CF92DF92EF92FF920F934E
:100960001F93CF93DF93CDB7DEB72F970FB6F894D1
:10097000DEBF0FBECDBFA982BA82CB82DC82ED8200
:10098000FE820F83188729873A874B875C876D879C
:100990007E878F87AA85BB856C857D85E09157050D
:1009A000F09158053097D1F18091590590915A05F1
:1009B000458556850097C1F4F0935A05E093590593
:1009C0005093580540935705B182C282D382E48286
:1009D000F582068317832087B287A187A082748758
:1009E00063871686158617C0B182C282D382E482DD
:1009F000F582068317832087B287A187A082748738
:100A00006387F0935A05E093590550935805409336
:100A10005705968785878FEF90E002C080E090E0D1
:100A20002F960FB6F894DEBF0FBECDBFDF91CF91EA
:100A30001F910F91FF90EF90DF90CF90BF90AF90FC
:100A40009F908F907F906F9008952F923F924F923A
:100A50005F926F927F928F929F92AF92BF92CF924E
:100A6000DF92EF92FF920F931F93CF93DF93CDB757
:100A7000DEB72F970FB6F894DEBF0FBECDBFA982A9
:100A80009B2CBA828C2CCB827D2CDC826E2CED824E
:100A90005F2CFE82402E0F83312E1887222E29874D
:100AA0003A874B875C876D877E878F87A091590532
:100AB000B0915A05FD0121813281438154816581C4
:100AC000768187819085A92CB82CC72CD62CE52C53
:100AD000F42C032D122D0E94020B31F03097B1F14E
:100AE0000584F685E02DE7CF309781F1EA17FB0703
:100AF00089F48585968590935A0580935905809150
:100B000057059091580596878587F0935805E0938F
:100B1000570519C01D968D919C911E978E179F07A2
:100B200011F0DC01F7CF858596851E969C938E93F8
:100B30001D978091570590915805F0935805E093C3
:100B40005705968785878FEF90E002C080E090E0A0
:100B50002F960FB6F894DEBF0FBECDBFDF91CF91B9
:100B60001F910F91FF90EF90DF90CF90BF90AF90CB
:100B70009F908F907F906F905F904F903F902F90BD
:100B800008956F927F928F929F92AF92BF92CF9271
:100B9000DF92EF92FF920F931F93CF93DF93D901D0
:100BA000EA01962E872E782E692EE0915905F09154
:100BB0005A05218132814381548165817681878103
:100BC00090855D016E01E92CF82C072D162D0E94F1
:100BD000020B31F0309721F00584F685E02DE9CF46
:100BE000CF01DF91CF911F910F91FF90EF90DF9098
:100BF000CF90BF90AF909F908F907F906F9008950F
:100C0000FC01009729F48091590590915A050895A7
:100C100021813281438154816581768187819085EC
:100C20000C94C105FC01158214821782168213826E
:100C3000128211861086138612860895FC01718334
:100C400060830C941206CF92DF92EF92FF921F9373
:100C5000CF93DF9300D000D0CDB7DEB77C01DC01AD
:100C60002D913C9111972115310559F01A968D91CE
:100C70009C911B970A96840F951F2817390708F433
:100C800065C0CA0106964B835C8369837A830E94A0
:100C9000170B4B815C8169817A81009709F458C0F8
:100CA000F70124813581232B69F49583848397830D
:100CB000868321E030E03383228351874087E0E060
:100CC000F0E01EC0D7010680F781E02D9383828378
:100CD00017969C938E93169712962D913C9113978D
:100CE0002F5F3F4F13963C932E93129718962D919A
:100CF0003C911997240F351F19963C932E93189702
:100D0000D7011296CD90DC9013971AE01C9D9001AC
:100D10001D9D300D11241896CD90DC9019972C0D47
:100D20003D1D1B963C932E931A97DC011196FC9364
:100D3000EE9313961C921E92129715965C934E9307
:100D4000149706960E944B0C8FEF03C082E001C0FF
:100D500081E00F900F900F900F90DF91CF911F9136
:100D6000FF90EF90DF90CF900895CF92DF92EF92B7
:100D7000FF920F931F93CF93DF93EC017B010C81C4
:100D80001D810115110509F44BC0D8011496CD90B1
:100D9000DC901597C6010E94170BF70191838083A1
:100DA000EF2809F43FC0A601B8016A5F7F4F0E9497
:100DB0004B0CD8011296ED91FC911397309749F4A2
:100DC0001D821C821F821E821B821A82198618862F
:100DD00014C0FD83EC838A819B8101979B838A8366
:100DE00088859985D80114962D913C911597821B81
:100DF000930B99878887118210822A813B814AE070
:100E0000429FC001439F900D112428853985820F90
:100E1000931F9B878A87C8010E94AF0B8FEF03C087
:100E200083E001C081E0DF91CF911F910F91FF908E
:100E3000EF90DF90CF900895CF92DF92EF92FF92E4
:100E40000F931F93CF93DF937B016A018901FC010C
:100E500022813381232B29F4F8011182108283E04F
:100E600017C0FC01C481D581209789F0A601B70184
:100E7000CE0106960E943E0C811105C0F801D18377
:100E8000C0838FEF05C00A80DB81C02DEDCF84E0E9
:100E9000DF91CF911F910F91FF90EF90DF90CF9056
:100EA0000895CF93DF93EC01CB012A813B8121157B
:100EB000310509F442C02130310531F40E94AF0BF5
:100EC000CE010E94120637C0DB01ED91FC91119713
:100ED00012964D915C911397309719F0538342838A
:100EE00002C05D834C83DC0112964D915C91139797
:100EF0004115510521F0DA01ED93FC9302C0FF8307
:100F0000EE83B901615071097B836A832885398535
:100F1000FC0144815581241B350B39872887EAE081
:100F2000E69FA001E79F500D1124420F531F5B87DE
:100F30004A870E94AF0B8FEF01C083E0DF91CF9112
:100F40000895DC011496ED91FC911597309739F0D6
:100F500084819581FB01918380838FEF089583E0E5
:100F600008950F931F93CF93DF93EC01EC81FD81E4
:100F7000309739F002811381CF010E94AF0BF80145
:100F8000F7CFCE010E9412068FEFDF91CF911F9114
:100F90000F9108950C943D0F0C94450F5D980895A2
:100FA000559A54980E94AB080C94CE0789B1807171
:100FB0000895DC01FB0181E08083818311967C919F
:100FC000119712966C91129713965C911397149641
:100FD0004C91149715963C91159716962C9116974F
:100FE00017969C91179718968C9118977283638324
:100FF000548345833683278390878187138612869F
:101000007487658756874787308B218B928B838BBC
:1010100086E799E1958B848B86E1868B81E090E071
:10102000908F878B118E8C91828F19964D915C9148
:101030001A9760E070E0448F558F668F778F1B960C
:101040008D919C911C97A0E0B0E080A391A3A2A3F6
:10105000B3A308958F929F92AF92BF92CF92DF92E7
:10106000EF92FF920F931F93CF93DF93CDB7DEB72D
:10107000C557D1090FB6F894DEBF0FBECDBF0E9491
:10108000C40880E090E00E9400064C010097B1F196
:10109000BE016F5A7F4F0E94D9078AE2898381E09F
:1010A0008A8383E78B8389E18C8389E58D83FE01C5
:1010B000EF5AFF4FDE011696CF018596E817F90724
:1010C00019F021912D93FACF8FEF8BA76BE270E08F
:1010D000CE0101960E942204F401A080B180C2805A
:1010E000D380E480F5800681178120853185428593
:1010F00053856485758586850E942505CB58DF4F0D
:101100000FB6F894DEBF0FBECDBFDF91CF911F9118
:101110000F91FF90EF90DF90CF90BF90AF909F9096
:101120008F9008954FE050E0BC0184E898E00C9463
:1011300023069FEB980F963008F48062E7E1F1E018
:1011400090E02191281729F09F5F9031D1F780E836
:101150000895892F089560E070E284E898E00E9485
:101160001E061092D3061092D20681E8E1E1F9E062
:10117000DF01982F1D929A95E9F7E0E9F8E0DF0189
:101180001D928A95E9F708955F926F927F928F92F0
:101190009F92AF92BF92CF92DF92EF92FF920F9306
:1011A0001F93CF93DF93CDB7DEB7AA970FB6F8940E
:1011B000DEBF0FBECDBF0E944F03882309F457C185
:1011C0000E945503882309F452C12091D206309120
:1011D000D306203831050CF04AC1F901EF5EF64F15
:1011E00080832F5F3F4F3093D3062093D2068A30FF
:1011F00009F03DC161E179E080E998E00E945F0C6F
:101200001092D3061092D20681E8E1E1F9E0DF0105
:101210001D928A95E9F76AE270E080E998E00E9401
:10122000540C5C01009709F422C1FE0131964F0174
:101230008FE0DF011D928A95E9F7F501838D0E9409
:101240009908182FD5015C968C910E949908F50198
:1012500090E020E030E0419194272F5F3F4F2B3109
:101260003105C9F7B0E11B9F90011124282B2917E4
:1012700079F08FE0F401DE01509601900D928A958D
:10128000E1F7B12CC12CD12CE12CF12C00E0D1C024
:101290001EA21DA2F50181810E949908082FD50187
:1012A00012968C910E949908B0E10B9F8001112445
:1012B000082B0CA3F50183810E949908182FD501F2
:1012C00014968C910E949908B0E11B9FB0011124E3
:1012D000182F162B1BA3F50185810E949908E82E73
:1012E000D50116968C910E949908B0E1EB9E700191
:1012F0001124E82AEAA2F50187810E949908F82EB4
:10130000D50118968C910E949908B0E1FB9EA0012E
:101310001124F82EF42AF9A2F50181850E9499087A
:10132000C82ED5011A968C910E949908B0E1CB9EE7
:1013300060011124C82AC8A2F50183850E9499087A
:10134000D82ED5011C968C910E949908B0E1DB9EA5
:1013500090011124D82ED22ADF8EF50186850E94B5
:101360009908682ED5011F968C910E949908782EB5
:10137000F50181890E949908582ED50152968C91C9
:101380000E949908B0E15B9EF00111248E2B8FA37F
:10139000F50183890E949908582ED50154968C91A5
:1013A0000E949908B0E15B9EF00111248E2B88A762
:1013B000F50186890E949908582ED50157968C917F
:1013C0000E949908B0E15B9EF00111248E2B89A741
:1013D000F501808D0E949908582ED50159968C915F
:1013E0000E949908B0E15B9EF00111248E2B8AA720
:1013F000E0E16E9EA001112447294983BD2CDF2C1A
:10140000F12EBA82CB82DC82ED821E830F83188696
:101410001986E9A5FAA5FB87EA87EFA1F8A5FD875C
:10142000EC878FE0F401DE01509601900D928A95D1
:10143000E1F72B2D3C2D4D2D5E2D6F2D702F80E073
:1014400090E0A0E00E940B0B59F0A88810E020E08B
:10145000398D4A8D5B8D6C8D7D8D8E8D0E94A5049E
:1014600081E8E0E9F8E0DF011D928A95E9F7AA96A4
:101470000FB6F894DEBF0FBECDBFDF91CF911F91A5
:101480000F91FF90EF90DF90CF90BF90AF909F9023
:101490008F907F906F905F9008950F931F93CF93DD
:1014A000DF93CDB7DEB7E2970FB6F894DEBF0FBE7D
:1014B000CDBFFC018E010F5F1F4F82E3D8011D924B
:1014C0008A95E9F780858F9387818F9386818F93A3
:1014D00085818F9384818F9383818F9382818F9372
:1014E00081818F9384858F9383858F9382858F935A
:1014F00081858F9380811F928F9389EC90E09F93D9
:101500008F931F930F930E94040DC8010E94320411
:101510000FB6F894DEBF0FBECDBFE2960FB6F894BB
:10152000DEBF0FBECDBFDF91CF911F910F91089508
:101530008093DB060895CF92DF92EF92FF926B01CA
:101540007C010E945A016C0D7D1D8E1D9F1D6093B4
:10155000D7067093D8068093D9069093DA06FF9049
:10156000EF90DF90CF9008950F931F930E945A0140
:101570000091D7061091D8062091D9063091DA064D
:10158000601771078207930740F068EE73E080E010
:1015900090E00E949B0A81E001C080E01F910F91C2
:1015A0000895569A579A84B1817084B988E99AE06F
:1015B0000E9415030E944E010E94BA010E948B04F2
:1015C0000E94D0070E94970078940E943E0487E30F
:1015D00091E00E948503C0E40E942A080E94A000B6
:1015E0008091DB061092DB060E94B40A8823A1F3E7
:1015F00068EE73E080E090E00E949B0A8BB18C273C
:101600008BB9EACF2A153B054C055D056E057F05B4
:101610008007910708950024A7FD00942A1730053C
:101620004005500560057005800590050895CF932D
:10163000DF938230910510F482E090E0E09194090C
:10164000F091950920E030E0A0E0B0E0309739F16A
:101650004081518148175907B8F04817590771F46C
:1016600082819381109729F013969C938E93129701
:101670002CC0909395098093940927C021153105BA
:1016800031F04217530718F0A901DB0101C0EF0147
:101690009A01BD01DF010280F381E02DD7CF211532
:1016A0003105F9F0281B390B2430310580F48A818B
:1016B0009B816115710521F0FB019383828304C036
:1016C0009093950980939409FE01329644C0FE01DF
:1016D000E20FF31F819391932250310939832883BC
:1016E0003AC02091920930919309232B41F4209123
:1016F00002013091030130939309209392092091C4
:101700000001309101012115310541F42DB73EB79B
:101710004091040150910501241B350BE091920981
:10172000F0919309E217F307A0F42E1B3F0B281743
:10173000390778F0AC014E5F5F4F2417350748F04A
:101740004E0F5F1F50939309409392098193919399
:1017500002C0E0E0F0E0CF01DF91CF910895CF9398
:10176000DF93009709F487C0FC013297138212823D
:10177000C0919409D0919509209781F420813181FD
:10178000280F391F8091920990919309821793072E
:1017900079F5F0939309E09392096DC0DE0120E0A2
:1017A00030E0AE17BF0750F412964D915C9113973D
:1017B0009D014115510509F1DA01F3CFB383A283ED
:1017C00040815181840F951F8A179B0771F48D9179
:1017D0009C911197840F951F029691838083129696
:1017E0008D919C911397938382832115310529F460
:1017F000F0939509E09394093EC0D9011396FC93A8
:10180000EE9312974D915D91A40FB51FEA17FB0758
:1018100079F480819181840F951F0296D9011196E8
:101820009C938E938281938113969C938E931297AF
:10183000E0E0F0E08A819B81009719F0FE01EC0165
:10184000F9CFCE01029628813981820F931F209112
:101850009209309193092817390769F4309729F4D0
:10186000109295091092940902C013821282D093AB
:101870009309C0939209DF91CF910895FB01DC0198
:1018800004C08D910190801921F441505040C8F757
:10189000881B990B0895FB01DC0102C001900D9299
:1018A00041505040D8F70895FC018191861721F0EE
:1018B0008823D9F7992708953197CF010895FB011F
:1018C000DC0101900D920020E1F708950F931F9322
:1018D000CF93DF93EC018B01009731F46115710513
:1018E00019F480E090E038C06EE070E081E090E0B4
:1018F0000E94530FFC010097A1F380E88383011538
:10190000110571F01387028781E88383809196091E
:1019100090919709892B21F4F0939709E093960908
:101920002097C9F0D187C0878381826083838091AB
:10193000980990919909892B71F4F0939909E09392
:10194000980980919A0990919B09892B21F4F09331
:101950009B09E0939A09CF01DF91CF911F910F91DD
:1019600008950F931F93CF93DF93CDB7DEB7FE019A
:1019700037966191719108E919E0D8018D919C9198
:10198000DC0113962C911397286013962C93AF01CA
:101990000E94420DD801ED91FC912381277F238382
:1019A000DF91CF911F910F9108950F931F93CF93C4
:1019B000DF93CDB7DEB72E970FB6F894DEBF0FBE1C
:1019C000CDBF0D891E8986E08C831A8309838FEF32
:1019D0009FE79E838D83AE01475E5F4F6F89788D51
:1019E000CE0101960E94420DEF81F885E00FF11FB4
:1019F00010822E960FB6F894DEBF0FBECDBFDF91DA
:101A0000CF911F910F9108950F931F93CF93DF9361
:101A1000CDB7DEB72E970FB6F894DEBF0FBECDBFA1
:101A20000D891E898EE08C831A8309838FEF9FE7CF
:101A30009E838D83AE01475E5F4F6F89788DCE01A7
:101A400001960E94420DEF81F885E00FF11F108290
:101A50002E960FB6F894DEBF0FBECDBFDF91CF91AB
:101A60001F910F910895CF93DF93EC018B818860D4
:101A70008B83CE010E94420D2B81277F2B83DF9128
:101A8000CF9108952F923F924F925F926F927F92E3
:101A90008F929F92AF92BF92CF92DF92EF92FF927E
:101AA0000F931F93CF93DF93CDB7DEB72C970FB66D
:101AB000F894DEBF0FBECDBF7C016B018A01FC0133
:101AC00017821682838181FFBDC1CE0101964C0130
:101AD000F7019381F60193FD859193FF81916F0149
:101AE000882309F4ABC1853239F493FD859193FFC6
:101AF00081916F01853229F4B70190E00E948C0F2B
:101B0000E7CF512C312C20E02032A0F48B3269F049
:101B100030F4803259F0833269F420612CC08D3268
:101B200039F0803339F4216026C02260246023C05C
:101B3000286021C027FD27C030ED380F3A3078F4F7
:101B400026FF06C0FAE05F9E300D1124532E13C00D
:101B50008AE0389E300D1124332E20620CC08E3264
:101B600021F426FD6BC1206406C08C3611F4206878
:101B700002C0883641F4F60193FD859193FF81916F
:101B80006F018111C1CF982F9F7D9554933028F418
:101B90000C5F1F4FFFE3F9830DC0833631F08337AD
:101BA00071F0833509F05BC022C0F8018081898320
:101BB0000E5F1F4F44244394512C540115C038012B
:101BC000F2E06F0E711CF801A080B18026FF03C007
:101BD000652D70E002C06FEF7FEFC5012C870E947A
:101BE000810F2C0183012C852F77222E17C03801FD
:101BF000F2E06F0E711CF801A080B18026FF03C0D7
:101C0000652D70E002C06FEF7FEFC5012C870E9449
:101C10006F0F2C012C852068222E830123FC1BC012
:101C2000832D90E048165906B0F4B70180E290E0A9
:101C30000E948C0F3A94F4CFF50127FC859127FE82
:101C400081915F01B70190E00E948C0F31103A94AE
:101C5000F1E04F1A51084114510471F7E5C0843680
:101C600011F0893639F5F80127FF07C060817181CD
:101C7000828193810C5F1F4F08C06081718188272A
:101C800077FD8095982F0E5F1F4F2F76B22E97FF0E
:101C900009C090958095709561957F4F8F4F9F4FAC
:101CA0002068B22E2AE030E0A4010E94BE0FA82EC8
:101CB000A81844C0853729F42F7EB22E2AE030E0E0
:101CC00025C0F22FF97FBF2E8F36C1F018F488356A
:101CD00079F0B4C0803719F0883721F0AFC02F2FCA
:101CE0002061B22EB4FE0DC08B2D8460B82E09C0C9
:101CF00024FF0AC09F2F9660B92E06C028E030E06E
:101D000005C020E130E002C020E132E0F801B7FE7A
:101D100007C060817181828193810C5F1F4F06C073
:101D20006081718180E090E00E5F1F4FA4010E94EE
:101D3000BE0FA82EA818FB2DFF77BF2EB6FE0BC036
:101D40002B2D2E7FA51450F4B4FE0AC0B2FC08C09F
:101D50002B2D2E7E05C07A2C2B2D03C07A2C01C092
:101D6000752C24FF0DC0FE01EA0DF11D808180332A
:101D700011F4297E09C022FF06C07394739404C035
:101D8000822F867809F0739423FD13C020FF06C0CC
:101D90005A2C731418F4530C5718732C731468F4DA
:101DA000B70180E290E02C870E948C0F73942C8501
:101DB000F5CF731410F4371801C0312C24FF12C072
:101DC000B70180E390E02C870E948C0F2C8522FFC6
:101DD00017C021FF03C088E590E002C088E790E0CB
:101DE000B7010CC0822F867859F021FD02C080E235
:101DF00001C08BE227FD8DE2B70190E00E948C0FBD
:101E0000A51438F4B70180E390E00E948C0F5A9437
:101E1000F7CFAA94F401EA0DF11D8081B70190E09B
:101E20000E948C0FA110F5CF332009F451CEB701D9
:101E300080E290E00E948C0F3A94F6CFF701868101
:101E4000978102C08FEF9FEF2C960FB6F894DEBFFC
:101E50000FBECDBFDF91CF911F910F91FF90EF90FB
:101E6000DF90CF90BF90AF909F908F907F906F90BA
:101E70005F904F903F902F900895F999FECF92BDBB
:101E800081BDF89A992780B50895262FF999FECF3C
:101E90001FBA92BD81BD20BD0FB6F894FA9AF99A87
:101EA0000FBE019608950F931F93CF93DF93869FE4
:101EB0008001879F100D969F100D1124C8010E946C
:101EC000170BEC01009729F0A80160E070E00E9478
:101ED0007A0FCE01DF91CF911F910F910895FC01F0
:101EE0000590615070400110D8F7809590958E0F45
:101EF0009F1F0895DC0101C06D9341505040E0F7F1
:101F00000895FC016150704001900110D8F7809550
:101F100090958E0F9F1F08950F931F93CF93DF937C
:101F2000182F092FEB018B8181FD03C08FEF9FEFED
:101F300020C082FF10C04E815F812C813D814217FD
:101F400053077CF4E881F9819F012F5F3F4F39836C
:101F50002883108306C0E885F985812F0995892B90
:101F600029F72E813F812F5F3F4F3F832E83812FA3
:101F7000902FDF91CF911F910F910895FA01AA2719
:101F8000283051F1203181F1E8946F936E7F6E5FBC
:101F90007F4F8F4F9F4FAF4FB1E03ED0B4E03CD06A
:101FA000670F781F891F9A1FA11D680F791F8A1F4D
:101FB000911DA11D6A0F711D811D911DA11D20D0B4
:101FC00009F468943F912AE0269F11243019305D6E
:101FD0003193DEF6CF010895462F4770405D41935F
:101FE000B3E00FD0C9F7F6CF462F4F70405D4A33AC
:101FF00018F0495D31FD4052419302D0A9F7EACF74
:10200000B4E0A6959795879577956795BA95C9F7A2
:1020100000976105710508959B01AC010A2E069495
:102020005795479537952795BA95C9F7620F731F4E
:0C203000841F951FA01D0895F894FFCF99
:10203C0000009C09200030313233343536373839C2
:10204C00616263646566003031323334353637385B
:10205C0039616263646566006C656E3A20256400C4
:10206C0073656E740D0A0048656C6C6F2042544C9D
:04207C00450D0A0004
:00000001FF
