:100000000C9476000C9495000C9495000C9495003B
:100010000C9495000C9495000C9495000C9495000C
:100020000C9495000C9495000C9495000C949500FC
:100030000C9495000C9495000C9495000C949500EC
:100040000C943C010C9495000C9495000C94950034
:100050000C94F9030C9495000C9495000C94950065
:100060000C9495000C9495000C9495000C949500BC
:100070000C944C030C9495000C9495000C949500F2
:100080000C9495000C9495000C94950048454C4CAC
:100090004F20574F524C440D0A00256C75200030FC
:1000A00031323334353637383941424344454600DE
:1000B00064656275673A2000303132333435363743
:1000C000383941424344454600727373693D2564A3
:1000D00020626174743D25642074656D703D2564F3
:1000E000206D61633D2564200D0A000011241FBEB0
:1000F000CFEFD0E4DEBFCDBF11E0A0E0B1E0E6EC91
:10010000FAE100E00BBF02C007900D92A633B107E1
:10011000D9F727E0A6E3B1E001C01D92AC38B207E1
:10012000E1F70E9438080C94610D0C9400000C94C7
:1001300081035898089589B1827008950E94CB0078
:1001400080914F0590915005892B51F06091510598
:10015000709152056A5F7F4F8DE495E00C946205C3
:1001600008954DE050E0BC018DE495E00C9434041A
:10017000109237011092360181E8E9E5F5E0DF01E0
:10018000982F1D929A95E9F7EAEDF5E0DF011D92AF
:100190008A95E9F70895CF930E94B7038823B9F1B0
:1001A0000E94BD03882399F12091360130913701D7
:1001B0002038310564F5F901E75AFA4F80832F5F43
:1001C0003F4F30933701209336018A3001F569E5BE
:1001D00075E08AED95E00E94B909109237011092FE
:1001E0003601C1E8E9E5F5E0DF018C2F1D928A9523
:1001F000E9F76AE270E08AED95E00E94C009892B78
:1002000031F4EAEDF5E0DF011D92CA95E9F7CF91EF
:10021000089584B5826084BD8DE787BD85B5836010
:1002200085BD82E080936E00089560915B067091B9
:100230005C0680915D0690915E0608950F931F9372
:1002400000915B0610915C0620915D0630915E0680
:10025000600F711F821F931F00915B0610915C0657
:1002600020915D0630915E06601771078207930743
:1002700098F71F910F9108951F920F920FB60F924A
:1002800011248F939F93AF93BF9380915B069091BE
:100290005C06A0915D06B0915E060196A11DB11DA0
:1002A00080935B0690935C06A0935D06B0935E0618
:1002B000BF91AF919F918F910F900FBE0F901F90A4
:1002C000189580915B0690915C06A0915D06B091B7
:1002D0005E060196A11DB11D80935B0690935C069E
:1002E000A0935D06B0935E06089510925F0610928B
:1002F00066061092650610926406109260061092CF
:100300006106109262061092630610926D061092BA
:100310006C0610926B061092670610926806109297
:10032000690610926A060895089508951092C5000E
:1003300023E32093C400E1ECF0E0208120682083D7
:10034000208128612083E2ECF0E020812660208378
:10035000909371068093700660E070E08EEF91E0FC
:100360000C94DA091F920F920FB60F9211240BB65C
:100370000F922F933F934F935F936F937F938F933E
:100380009F93AF93BF93EF93FF938091C600E0914B
:100390007006F0917106309709F00995FF91EF9181
:1003A000BF91AF919F918F917F916F915F914F918D
:1003B0003F912F910F900BBE0F900FBE0F901F908B
:1003C00018959093710680937006089590936F0628
:1003D00080936E060895FC018191882339F09091F5
:1003E000C00095FFFCCF8093C600F6CF0895909192
:1003F000C00095FFFCCF8093C6000895CF93C82F0F
:100400000E94F701E0916E06F0916F06309711F0AF
:100410008C2F099580E090E0CF910895E82FE29528
:10042000EF70F0E0E156FF4FE4919091C00095FF2E
:10043000FCCFE093C6008F70E82FF0E0E156FF4F4D
:10044000E4918091C00085FFFCCFE093C600089541
:10045000EF92FF920F931F93CF93DF938C017B0159
:10046000EC01CE01801B910B8E159F053CF4899108
:100470000E940E0280E20E94F701F3CF8DE00E94FD
:10048000F7018AE0DF91CF911F910F91FF90EF90DC
:100490000C94F7010F931F93CF93DF93CDB7DEB783
:1004A0000F81188501151105D9F080915B06909197
:1004B0005C06A0915D06B0915E06BF93AF939F93DB
:1004C0008F938AE990E09F938F930E94250A1F9350
:1004D0000F930E94250A0FB6F894DEBF0FBECDBF62
:1004E000AE01455F5F4F69857A858091880790915D
:1004F00089070E94780ADF91CF911F910F9108958B
:100500008CE890E09F938F9380EB90E09F938F9384
:100510000E944A020F900F900F900F9093E48091E9
:10052000C00085FD03C09093C600F9CF2FEF84E390
:100530009CE0215080409040E1F700C0000080E541
:100540008093C6002FEF84E39CE0215080409040D0
:10055000E1F700C0000088E48093C6002FEF84E339
:100560009CE0215080409040E1F700C000000895D9
:10057000909373068093720608951092CD008CE0DC
:100580008093CC00E9ECF0E08081886880838081F2
:1005900088618083EAECF0E0808186608083089542
:1005A0001092CD002CE02093CC00E9ECF0E020810B
:1005B00028682083208128612083EAECF0E02081F4
:1005C000266020839093730680937206089540916D
:1005D0003B0350913C039A012F5F3F4F3170609174
:1005E0003D0370913E032617370741F0FA01E55CA1
:1005F000FE4F808330933C0320933B03089584E0B7
:1006000092E0EBE3F1E0DF019C011D9221503040CC
:10061000E1F7089580913B0390913D03891B089574
:1006200020913D0330913E0380913B0390913C0328
:100630008217930761F0F901E55CFE4F80812F5F1F
:100640003F4F317030933E0320933D0308958FEF69
:1006500008959091C80095FFFCCF8093CE00089537
:10066000FC019F01281B390B2617370744F4209102
:10067000C80025FFFCCF21912093CE00F2CF089532
:10068000FC018191882339F09091C80095FFFCCF3F
:100690008093CE00F6CF08951F920F920FB60F925F
:1006A00011240BB60F922F933F934F935F936F9349
:1006B0007F938F939F93AF93BF93CF93EF93FF93CA
:1006C000C091CE008C2F0E94E702E0917206F0915B
:1006D0007306309711F08C2F0995FF91EF91CF9110
:1006E000BF91AF919F918F917F916F915F914F914A
:1006F0003F912F910F900BBE0F900FBE0F901F9048
:1007000018951092C5008CE08093C400E1ECF0E0F5
:10071000808188688083808188618083E2ECF0E05A
:10072000808186608083089540913F055091400507
:100730009A012F5F3F4F31706091410570914205E2
:100740002617370741F0FA01E15CFC4F80833093B4
:10075000400520933F05089584E092E0EFE3F3E045
:10076000DF019C011D9221503040E1F708958091F6
:100770003F0590914105891B0895209141053091D5
:10078000420580913F05909140058217930761F0E3
:10079000F901E15CFC4F80812F5F3F4F3170309356
:1007A00042052093410508958FEF08959091C00070
:1007B00095FFFCCF8093C6000895FC019F01281B84
:1007C000390B2617370744F42091C00025FFFCCFD2
:1007D00021912093C600F2CF0895FC0181918823D6
:1007E00039F09091C00095FFFCCF8093C600F6CF02
:1007F00008951F920F920FB60F9211240BB60F920D
:100800002F933F934F935F936F937F938F939F9318
:10081000AF93BF93EF93FF938091C6000E94940320
:10082000FF91EF91BF91AF919F918F917F916F91C8
:100830005F914F913F912F910F900BBE0F900FBE84
:100840000F901F901895FC01158214821782168252
:100850001382128211861086138612860895FC0177
:10086000718360830C942304CF92DF92EF92FF9206
:100870001F93CF93DF9300D000D0CDB7DEB77C01BC
:10088000DC012D913C9111972115310559F01A96F3
:100890008D919C911B970A96840F951F28173907F5
:1008A00008F465C0CA0106964B835C8369837A832A
:1008B0000E9471084B815C8169817A81009709F4FB
:1008C00058C0F70124813581232B69F495838483F3
:1008D0009783868321E030E03383228351874087EA
:1008E000E0E0F0E01EC0D7010680F781E02D9383A1
:1008F000828317969C938E93169712962D913C9116
:1009000013972F5F3F4F13963C932E931297189691
:100910002D913C911997240F351F19963C932E93D6
:100920001897D7011296CD90DC9013971AE01C9D72
:1009300090011D9D300D11241896CD90DC901997D3
:100940002C0D3D1D1B963C932E931A97DC0111969E
:10095000FC93EE9313961C921E92129715965C933D
:100960004E93149706960E94A5098FEF03C082E06C
:1009700001C081E00F900F900F900F90DF91CF9109
:100980001F91FF90EF90DF90CF900895CF92DF926C
:10099000EF92FF920F931F93CF93DF93EC017B01B4
:1009A0000C811D810115110509F44BC0D801149665
:1009B000CD90DC901597C6010E947108F7019183D4
:1009C0008083EF2809F43FC0A601B8016A5F7F4F1A
:1009D0000E94A509D8011296ED91FC9113973097CA
:1009E00049F41D821C821F821E821B821A82198674
:1009F000188614C0FD83EC838A819B8101979B83B9
:100A00008A8388859985D80114962D913C911597F4
:100A1000821B930B99878887118210822A813B81E0
:100A20004AE0429FC001439F900D112428853985DB
:100A3000820F931F9B878A87C8010E9409098FEF45
:100A400003C083E001C081E0DF91CF911F910F913E
:100A5000FF90EF90DF90CF900895CF92DF92EF92CA
:100A6000FF920F931F93CF93DF937B016A0189015C
:100A7000FC0122813381232B29F4F8011182108299
:100A800083E017C0FC01C481D581209789F0A601BD
:100A9000B701CE0106960E949809811105C0F801A0
:100AA000D183C0838FEF05C00A80DB81C02DEDCFDD
:100AB00084E0DF91CF911F910F91FF90EF90DF9035
:100AC000CF900895CF93DF93EC01CB012A813B8136
:100AD0002115310509F442C02130310531F40E945D
:100AE0000909CE010E94230437C0DB01ED91FC917E
:100AF000119712964D915C911397309719F053838B
:100B0000428302C05D834C83DC0112964D915C915F
:100B100013974115510521F0DA01ED93FC9302C0C2
:100B2000FF83EE83B901615071097B836A83288555
:100B30003985FC0144815581241B350B3987288771
:100B4000EAE0E69FA001E79F500D1124420F531FDA
:100B50005B874A870E9409098FEF01C083E0DF911C
:100B6000CF910895DC011496ED91FC911597309783
:100B700039F084819581FB01918380838FEF089503
:100B800083E008950F931F93CF93DF93EC01EC81E3
:100B9000FD81309739F002811381CF010E9409094C
:100BA000F801F7CFCE010E9423048FEFDF91CF91A0
:100BB0001F910F9108950C94820C0C948A0C5D98EF
:100BC0000895559A54980E9428060C94DF0589B11F
:100BD00080710895CF93DF9300D0CDB7DEB70E9428
:100BE00041068091760690917706892B99F0809145
:100BF00078069091790606969A838983189904C09D
:100C0000CE0101960E94B40769817A8184E796E05B
:100C10000E9462050F900F90DF91CF9108954DE0F3
:100C200050E0BC0184E796E00C9434049FEB980FED
:100C3000963008F48062E7E1F1E090E02191281716
:100C400029F09F5F9031D1F780E80895892F0895AA
:100C500060E070E284E796E00E942F041092440561
:100C60001092430581E8E1E0F7E0DF01982F1D9243
:100C70009A95E9F7E0E8F6E0DF011D928A95E9F739
:100C800008955F926F927F928F929F92AF92BF92E0
:100C9000CF92DF92EF92FF920F931F93CF93DF9348
:100CA000CDB7DEB7A6970FB6F894DEBF0FBECDBFA7
:100CB0000E940A03882309F441C10E94100388237B
:100CC00009F43CC120914305309144052038310599
:100CD0000CF034C1F901EF5FF84F80832F5F3F4F75
:100CE00030934405209343058A3009F027C161E021
:100CF00077E080E896E00E94B909109244051092CE
:100D0000430581E8E1E0F7E0DF011D928A95E9F70C
:100D10006AE270E080E896E00E94AE098C010097DC
:100D200009F40CC1FE0131967F018DE0DF011D92B7
:100D30008A95E9F7F801838D0E941606D82ED8010E
:100D40005C968C910E941606F80190E020E030E05D
:100D5000419194272F5F3F4F2B313105C9F7B0E107
:100D6000DB9E90011124282B2913C9C01AA219A2B5
:100D7000F80181810E941606D82ED80112968C9116
:100D80000E941606B0E1DB9E90011124D82ED22AD3
:100D9000D8A2F80183810E941606C82ED8011496A5
:100DA0008C910E941606B0E1CB9E90011124C82EB2
:100DB000C22ACF8EF80185810E941606B82ED8016E
:100DC00016968C910E941606B0E1BB9E90011124EC
:100DD000B82EB22ABE8EF80187810E941606A82E70
:100DE000D80118968C910E941606B0E1AB9E900136
:100DF0001124A82EA22AAD8EF80181850E94160624
:100E0000982ED8011A968C910E941606B0E19B9EEE
:100E100090011124982E922A9C8EF80183850E94BD
:100E20001606882ED8011C968C910E941606B0E1F9
:100E30008B9E90011124882E822A8B8EF801868544
:100E40000E941606682ED8011F968C910E941606E5
:100E5000782EF80181890E941606582ED8015296E4
:100E60008C910E941606B0E15B9E90011124822BAA
:100E70008BA3F80183890E941606582ED801549638
:100E80008C910E941606B0E15B9E90011124822B8A
:100E90008CA3F80186890E941606582ED801579611
:100EA0008C910E941606B0E15B9E90011124822B6A
:100EB0008DA3F801808D0E941606582ED8015996F0
:100EC0008C910E941606B0E15B9E90011124822B4A
:100ED0008EA3E0E16E9EA0011124472949838A82F6
:100EE0009B82AC82BD82CE82DF82188619868DA15C
:100EF0009EA19B878A878BA19CA19D878C878DE073
:100F0000F701DE011E9601900D928A95E1F72F857B
:100F1000388949895A896B897C898D899E89A0E0A5
:100F20000E94650821F0CE010E960E940F0681E80E
:100F3000E0E8F6E0DF011D928A95E9F7A6960FB684
:100F4000F894DEBF0FBECDBFDF91CF911F910F91FF
:100F5000FF90EF90DF90CF90BF90AF909F908F90D9
:100F60007F906F905F9008950F931F93CF93DF93BF
:100F7000CDB7DEB7E2970FB6F894DEBF0FBECDBF98
:100F8000FC018E010F5F1F4F82E3D8011D928A95ED
:100F9000E9F780858F9387818F9386818F938581F1
:100FA0008F9384818F9383818F9382818F938181AB
:100FB0008F9384858F9383858F9382858F9381858B
:100FC0008F9380811F928F9389EC90E09F938F93F2
:100FD0001F930F930E94490AC8010E94ED030FB6A8
:100FE000F894DEBF0FBECDBFE2960FB6F894DEBF19
:100FF0000FBECDBFDF91CF911F910F9108958093C8
:101000004C050895CF92DF92EF92FF926B017C0125
:101010000E9415016C0D7D1D8E1D9F1D609348055E
:101020007093490580934A0590934B05FF90EF908C
:10103000DF90CF9008950F931F930E9415010091A8
:1010400048051091490520914A0530914B056017DC
:1010500071078207930740F068EE73E080E090E04C
:101060000E94020881E001C080E01F910F91089565
:10107000569A579A84B1817084B98FEF97E00E9495
:10108000D0020E9409010E9475010E949700789485
:1010900088E291E00E944003C0E480914C058823DF
:1010A00021F080914C050E94D60310924C050E94BD
:1010B0001B08882391F368EE73E080E090E00E94C3
:1010C00002088BB18C278BB9E8CF0024A7FD0094D0
:1010D0002A1730054005500560057005800590050C
:1010E0000895CF93DF938230910510F482E090E071
:1010F000E0918407F091850720E030E0A0E0B0E0C7
:10110000309739F14081518148175907B8F0481795
:10111000590771F482819381109729F013969C935B
:101120008E9312972CC0909385078093840727C0D5
:101130002115310531F04217530718F0A901DB01E1
:1011400001C0EF019A01BD01DF010280F381E02DB2
:10115000D7CF21153105F9F0281B390B2430310583
:1011600080F48A819B816115710521F0FB019383D5
:10117000828304C09093850780938407FE01329692
:1011800044C0FE01E20FF31F819391932250310975
:10119000398328833AC02091820730918307232B1B
:1011A00041F4209102013091030130938307209391
:1011B000820720910001309101012115310541F490
:1011C0002DB73EB74091040150910501241B350B0A
:1011D000E0918207F0918307E217F307A0F42E1B3A
:1011E0003F0B2817390778F0AC014E5F5F4F24178B
:1011F000350748F04E0F5F1F5093830740938207D7
:101200008193919302C0E0E0F0E0CF01DF91CF91B4
:101210000895CF93DF93009709F487C0FC013297BC
:1012200013821282C0918407D0918507209781F4A0
:1012300020813181280F391F809182079091830787
:101240008217930779F5F0938307E09382076DC0C7
:10125000DE0120E030E0AE17BF0750F412964D914A
:101260005C9113979D014115510509F1DA01F3CF06
:10127000B383A28340815181840F951F8A179B07F6
:1012800071F48D919C911197840F951F0296918313
:10129000808312968D919C9113979383828321155D
:1012A000310529F4F0938507E09384073EC0D90106
:1012B0001396FC93EE9312974D915D91A40FB51F79
:1012C000EA17FB0779F480819181840F951F0296BC
:1012D000D90111969C938E938281938113969C934E
:1012E0008E931297E0E0F0E08A819B81009719F0DD
:1012F000FE01EC01F9CFCE01029628813981820FDF
:10130000931F20918207309183072817390769F4CA
:10131000309729F4109285071092840702C0138237
:101320001282D0938307C0938207DF91CF910895F3
:10133000FB01DC0104C08D910190801921F4415022
:101340005040C8F7881B990B0895FB01DC0102C0CF
:1013500001900D9241505040D8F70895FC018191C1
:10136000861721F08823D9F7992708953197CF015F
:101370000895FB01DC0101900D920020E1F7089532
:10138000FB0151915523A9F0BF01DC014D91451797
:101390004111E1F759F4CD010190002049F04D9140
:1013A00040154111C9F3FB014111EFCF81E090E0FD
:1013B000019708950F931F93CF93DF93EC018B0157
:1013C000009731F46115710519F480E090E038C0A0
:1013D0006EE070E081E090E00E94980CFC010097C4
:1013E000A1F380E883830115110571F0138702874B
:1013F00081E883838091860790918707892B21F468
:10140000F0938707E09386072097C9F0D187C087BC
:101410008381826083838091880790918907892BDB
:1014200071F4F0938907E093880780918A0790917F
:101430008B07892B21F4F0938B07E0938A07CF0168
:10144000DF91CF911F910F9108950F931F93CF9329
:10145000DF93CDB7DEB7FE0137966191719108E851
:1014600017E0D8018D919C91DC0113962C91139774
:10147000286013962C93AF010E94870AD801ED9142
:10148000FC912381277F2383DF91CF911F910F91BF
:1014900008950F931F93CF93DF93CDB7DEB72E97A9
:1014A0000FB6F894DEBF0FBECDBF0D891E898EE04A
:1014B0008C831A8309838FEF9FE79E838D83AE0110
:1014C000475E5F4F6F89788DCE0101960E94870A33
:1014D000EF81F885E00FF11F10822E960FB6F89479
:1014E000DEBF0FBECDBFDF91CF911F910F91089549
:1014F000CF93DF93EC018B8188608B83CE010E94B8
:10150000870A2B81277F2B83DF91CF9108952F921C
:101510003F924F925F926F927F928F929F92AF9283
:10152000BF92CF92DF92EF92FF920F931F93CF93D0
:10153000DF93CDB7DEB72C970FB6F894DEBF0FBEA2
:10154000CDBF7C016B018A01FC0117821682838169
:1015500081FFBDC1CE0101964C01F7019381F601D7
:1015600093FD859193FF81916F01882309F4ABC1AD
:10157000853239F493FD859193FF81916F01853216
:1015800029F4B70190E00E94D10CE7CF512C312C07
:1015900020E02032A0F48B3269F030F4803259F030
:1015A000833269F420612CC08D3239F0803339F4F4
:1015B000216026C02260246023C0286021C027FD4E
:1015C00027C030ED380F3A3078F426FF06C0FAE035
:1015D0005F9E300D1124532E13C08AE0389E300DCB
:1015E0001124332E20620CC08E3221F426FD6BC1F3
:1015F000206406C08C3611F4206802C0883641F49D
:10160000F60193FD859193FF81916F018111C1CF07
:10161000982F9F7D9554933028F40C5F1F4FFFE364
:10162000F9830DC0833631F0833771F0833509F0CB
:101630005BC022C0F801808189830E5F1F4F442464
:101640004394512C540115C03801F2E06F0E711C07
:10165000F801A080B18026FF03C0652D70E002C0B4
:101660006FEF7FEFC5012C870E94C60C2C01830110
:101670002C852F77222E17C03801F2E06F0E711CD7
:10168000F801A080B18026FF03C0652D70E002C084
:101690006FEF7FEFC5012C870E94B40C2C012C85C5
:1016A0002068222E830123FC1BC0832D90E0481666
:1016B0005906B0F4B70180E290E00E94D10C3A9450
:1016C000F4CFF50127FC859127FE81915F01B701D9
:1016D00090E00E94D10C31103A94F1E04F1A510879
:1016E0004114510471F7E5C0843611F0893639F59B
:1016F000F80127FF07C060817181828193810C5FAF
:101700001F4F08C060817181882777FD8095982FD1
:101710000E5F1F4F2F76B22E97FF09C090958095D0
:10172000709561957F4F8F4F9F4F2068B22E2AE0B2
:1017300030E0A4010E94030DA82EA81844C08537EC
:1017400029F42F7EB22E2AE030E025C0F22FF97F57
:10175000BF2E8F36C1F018F4883579F0B4C08037C9
:1017600019F0883721F0AFC02F2F2061B22EB4FEC0
:101770000DC08B2D8460B82E09C024FF0AC09F2F96
:101780009660B92E06C028E030E005C020E130E0C8
:1017900002C020E132E0F801B7FE07C0608171812C
:1017A000828193810C5F1F4F06C06081718180E050
:1017B00090E00E5F1F4FA4010E94030DA82EA818F1
:1017C000FB2DFF77BF2EB6FE0BC02B2D2E7FA51451
:1017D00050F4B4FE0AC0B2FC08C02B2D2E7E05C00A
:1017E0007A2C2B2D03C07A2C01C0752C24FF0DC040
:1017F000FE01EA0DF11D8081803311F4297E09C0BC
:1018000022FF06C07394739404C0822F867809F077
:10181000739423FD13C020FF06C05A2C731418F4D0
:10182000530C5718732C731468F4B70180E290E0DE
:101830002C870E94D10C73942C85F5CF731410F46F
:10184000371801C0312C24FF12C0B70180E390E0AB
:101850002C870E94D10C2C8522FF17C021FF03C0CA
:1018600088E590E002C088E790E0B7010CC0822FC5
:10187000867859F021FD02C080E201C08BE227FD8D
:101880008DE2B70190E00E94D10CA51438F4B701A5
:1018900080E390E00E94D10C5A94F7CFAA94F4010F
:1018A000EA0DF11D8081B70190E00E94D10CA110DA
:1018B000F5CF332009F451CEB70180E290E00E94C9
:1018C000D10C3A94F6CFF7018681978102C08FEF51
:1018D0009FEF2C960FB6F894DEBF0FBECDBFDF9101
:1018E000CF911F910F91FF90EF90DF90CF90BF901D
:1018F000AF909F908F907F906F905F904F903F90B0
:101900002F900895F999FECF92BD81BDF89A99273D
:1019100080B50895262FF999FECF1FBA92BD81BDDB
:1019200020BD0FB6F894FA9AF99A0FBE0196089561
:101930000F931F93CF93DF93869F8001879F100D96
:10194000969F100D1124C8010E947108EC010097A8
:1019500029F0A80160E070E00E94BF0CCE01DF9189
:10196000CF911F910F910895FC0105906150704037
:101970000110D8F7809590958E0F9F1F0895DC0178
:1019800001C06D9341505040E0F70895FC01615053
:10199000704001900110D8F7809590958E0F9F1F91
:1019A00008950F931F93CF93DF93182F092FEB0107
:1019B0008B8181FD03C08FEF9FEF20C082FF10C09D
:1019C0004E815F812C813D81421753077CF4E88171
:1019D000F9819F012F5F3F4F39832883108306C011
:1019E000E885F985812F0995892B29F72E813F817B
:1019F0002F5F3F4F3F832E83812F902FDF91CF9119
:101A00001F910F910895FA01AA27283051F1203132
:101A100081F1E8946F936E7F6E5F7F4F8F4F9F4F82
:101A2000AF4FB1E03ED0B4E03CD0670F781F891FC4
:101A30009A1FA11D680F791F8A1F911DA11D6A0F92
:101A4000711D811D911DA11D20D009F468943F9145
:101A50002AE0269F11243019305D3193DEF6CF0144
:101A60000895462F4770405D4193B3E00FD0C9F70A
:101A7000F6CF462F4F70405D4A3318F0495D31FD77
:101A80004052419302D0A9F7EACFB4E0A6959795CA
:101A9000879577956795BA95C9F7009761057105A0
:101AA00008959B01AC010A2E0694579547953795EA
:101AB0002795BA95C9F7620F731F841F951FA01D44
:061AC0000895F894FFCF29
:101AC60000008C0720003031323334353637383950
:101AD60061626364656600303132333435363738D7
:101AE600396162636465660048656C6C6F204254B8
:061AF6004C450D0A000042
:00000001FF
